:0400000099EF0AF07A
:1013BC00C58AC5881200C58605EC0AF01200C582E4
:1013CC0005EC0AF01200C58005EC0AF01200C58489
:1013DC0005EC0AF01200E1EC09F0DEEC09F0C95062
:1013EC001200016E01C0C9FF05EC0AF01200935007
:1013FC001F0B936E93501E09936EF19E12009EA6C6
:10140C000AEF0AF00CEF0AF005EF0AF09E961200B4
:10141C00016E9EA814EF0AF016EF0AF00FEF0AF017
:10142C0001C0ADFF120094869488280EC66E310E52
:10143C00C86EC79CC78E9E96A19612000A6E000EAF
:10144C00016E0950B5EC0AF0010E016E0A50B5ECB4
:10145C000AF01200C6EC0CF03DEC0AF0FDEC09F0C1
:10146C0084EC0AF019EC0AF015EC0BF01200C08EAB
:10147C00C09AC088C096C090C082C094C292C19AD3
:10148C00C198C46AC36AC28012000A6EE9EC09F002
:10149C00D00EF7EC09F00A50F7EC09F00950F7EC14
:1014AC0009F0EDEC09F01200026EE9EC09F0D00E37
:1014BC00F7EC09F00250F7EC09F0E5EC09F0D10E6D
:1014CC00F7EC09F0F1EC09F0036EEDEC09F00350C8
:1014DC001200026EE9EC09F0A00EF7EC09F00250D4
:1014EC00F7EC09F0E5EC09F0A10EF7EC09F0F1ECE2
:1014FC0009F0036EEDEC09F003501200948E949CED
:10150C00AC9CAC8AAC98AC96AC84AB8EAB9CAB88E8
:10151C00B89EB896B892B890810EAF6E9D889E9882
:10152C009D8A9E9A1200270EF66E170EF76E000E0D
:10153C00F86E00EE60F010EE6BF00900F5CFEEFFE8
:10154C00E550E150FAE100EECBF0270EEE6AE8062A
:10155C00FDE15F6A000EF86E0001FFEF0BF0026E0A
:10156C0001B0BBEF0AF0BEEF0AF08282BFEF0AF0C7
:10157C00829202C083FF82848294958E82808292B2
:10158C008284829483BECDEF0AF0CFEF0AF0C6EFCF
:10159C000AF08290959E1200076EE9EC09F0A00EFD
:1015AC00F7EC09F00750F7EC09F00450F7EC09F0F0
:1015BC00EDEC09F00B0E066EB80E056E0506D8A004
:1015CC000606052806E10628D8A4EFEF0AF0F1EF8D
:1015DC000AF0E4EF0AF01200076E07C003F0D8908F
:1015EC000336D8900336C250C30B0310C26EC282AE
:1015FC00C2B203EF0BF005EF0BF0FEEF0AF0C35095
:10160C00C4CF03F0046A03C004F0036A0310056E30
:10161C000450066E05C001F006C002F01200000E68
:10162C005AEC0AF00B6E0B508009096E000E4BEC55
:10163C000AF0020E5AEC0AF00B6E0B504009096EC0
:10164C00020E4BEC0AF0930E096E070E4BEC0AF0EF
:10165C00000E5AEC0AF00B6E0B507F0B096E000E4D
:10166C004BEC0AF01200820E036E2F0E046E800EED
:10167C00056EC9EC0BF0930E036E2F0E046EC00EAC
:10168C00056EC9EC0BF0330E076EBB0E066EE00E4A
:10169C00E82EFED7062EFCD7072EFAD7000E016EC9
:1016AC00010EB5EC0AF0050E0001C16F000EDE6FE5
:1016BC00DEC0DFF0DFC0DCF0DD6B12007AEF0BF088
:1016CC0002C0F6FF03C0F7FFF86A050EF76403D0FB
:1016DC000800F55005D0F6CFE9FFF7CFEAFFEF5041
:1016EC000EEC0AF0024A032A02C0F6FF03C0F7FF11
:1016FC00F86A050EF76403D00800F55005D0F6CF54
:10170C00E9FFF7CFEAFFEF500009D8A490EF0BF0F8
:0A171C0092EF0BF066EF0BF01200E5
:1017270056696577206C6F67202020200000000035
:1017370000446F776E6C6F6164206C6F6700000008
:101747000000436C656172206C6F672020200000E9
:101757000000005365742074696D65202020200007
:10176700000000004F4E00475200474E004731002F
:10177700473200473300473400473500434F0001E5
:10178700000430303A30303A303000000E016E0538
:1017970050B5EC0AF0E6EF0BF0010E016E03C0F650
:1017A700FF04C0F7FFF86A050EF76403D00800F5D9
:1017B7005005D0F6CFE9FFF7CFEAFFEF50B5EC0AB7
:1017C700F0034A042A03C0F6FF04C0F7FFF86A05CE
:1017D7000EF76403D00800F55005D0F6CFE9FFF700
:1017E700CFEAFFEF500009D8A4FCEF0BF0FEEF0B98
:1017F700F0D0EF0BF0120030EC0AF0010E3DEC0CCC
:10180700F05F6E1FEF0CF048EC12F001EF0CF03CAC
:10181700EC11F001EF0CF051EC10F001EF0CF0D8E7
:10182700EC0EF001EF0CF039EC0BF001EF0CF07857
:10183700EC15F001EF0CF00001C151000AD8B40F0C
:10184700EF0CF0010AD8B413EF0CF0030AD8B41761
:10185700EF0CF0010AD8B41BEF0CF0070AD8B40755
:10186700EF0CF0010AD8B40BEF0CF001EF0CF0000D
:10187700EF00F0016E0150D8A444EF0CF046EF0CD6
:10188700F04AEF0CF054EC0EF07CEF0CF00104D8AA
:10189700A450EF0CF052EF0CF07BEF0CF054EC0E71
:1018A700F0026E0250D8B45BEF0CF05DEF0CF06EF7
:1018B700EF0CF00001BF51C011D8B465EF0CF06711
:1018C700EF0CF06EEF0CF0000EC06F000EBF6F0252
:1018D700507CEF0CF00250D8A474EF0CF076EF0CAC
:1018E700F07BEF0CF0000E0001C06F010EBF6F0020
:1018F7000E1200020E5AEC0AF00001CB6F010E5ACD
:10190700EC0AF00001CC6F000E5AEC0AF00001CD92
:101917006FCBAD91EF0CF093EF0CF09EEF0CF0CB8B
:10192700390F0B010B300FC26FCB510F0B300FC3A9
:101937006FA7EF0CF0CB390F0B030B300FC26FCB38
:10194700510F0B300FC36F3A0EC46FCC390F0B0F0B
:101957000B300FC56FCC510F0B300FC66F3A0EC748
:101967006FCD390F0B0F0B300FC86FCD510F0B30E9
:101977000FC96FCA6BC20E036E046AC00E056EC92B
:10198700EC0BF01200956A9450F80B946E8290C39A
:101997000E036ECD0EE82EFED7032EFCD7000000F7
:1019A7000E016E330EB5EC0AF01B0E036E9E0EE8A9
:1019B7002EFED7032EFCD700D0000E016E330EB5D6
:1019C700EC0AF0A60EE82EFED700D0000E016E330B
:1019D7000EB5EC0AF000D000D00000000E016E0238
:1019E7000EB5EC0AF0A60EE82EFED700D0000E01C9
:1019F7006E380EB5EC0AF0A60EE82EFED700D00022
:101A07000E016E010EB5EC0AF0040E036E3E0EE8F1
:101A17002EFED7032EFCD7000E016E0C0EB5EC0A76
:101A2700F0A60EE82EFED700D01200066A02BE21ED
:101A3700EF0DF01FEF0DF027EF0DF0016C021ED830
:101A4700B0022A010E066E04BE2EEF0DF02CEF0D2C
:101A5700F032EF0DF0036C041ED8B0042A035004D3
:101A670010D8B439EF0DF03BEF0DF05FEF0DF0013B
:101A77000E056E43EF0DF0D89003360436052A04A1
:101A8700AE48EF0DF04AEF0DF03FEF0DF0035001B8
:101A97005C04500258D8A053EF0DF055EF0DF059E4
:101AA700EF0DF00350015E0450025AD89004320340
:101AB70032052E4AEF0DF00650D8B465EF0DF067EA
:101AC700EF0DF06BEF0DF0016C021ED8B0022A018A
:101AD700C001F002C002F01200066A04BE78EF0DE2
:101AE700F076EF0DF07EEF0DF0036C041ED8B00416
:101AF7002A010E066E02BE85EF0DF083EF0DF08B07
:101B0700EF0DF0016C021ED8B0022A010E061A0072
:101B17000E086E000E076E03500410D8B496EF0D32
:101B2700F098EF0DF0C0EF0DF0010E056EA0EF0D70
:101B3700F0D89003360436052A04AEA5EF0DF0A7BA
:101B4700EF0DF09CEF0DF0D89007360836035001E3
:101B57005C04500258D8A0B3EF0DF0B5EF0DF0BA02
:101B6700EF0DF00350015E0450025A0780D890042D
:101B7700320332052EA7EF0DF00650D8B4C6EF0D8D
:101B8700F0C8EF0DF0CCEF0DF0076C081ED8B008C9
:101B97002A07C001F008C002F012002A342B3431A2
:101BA7006E3150D8A4DAEF0DF0DCEF0DF0E6EF0D53
:101BB700F0000E286E000E296E000E2A6E000E2B06
:101BC7006E53EF0EF028C02CF029C02DF02AC02E3E
:101BD700F02BC02FF0200EF6EF0DF0D8902F322EFD
:101BE700322D322C32E82EF1EF0DF02C50306E2AC8
:101BF7008EFF0E2816FF0E2916FF0E2A16000E2B33
:101C070016960E315E31BE0DEF0EF00BEF0EF02380
:101C1700EF0EF03150800A970FD8B015EF0EF0177E
:101C2700EF0EF019EF0EF0DCEF0DF0D8902B322A03
:101C37003229322832313E19EF0EF03BEF0EF01FFA
:101C47000E316429EF0EF02BEF0EF033EF0EF0DCC0
:101C5700EF0DF0D890283629362A362B3631063143
:101C670050D8A439EF0EF03BEF0EF02DEF0EF03009
:101C770050D8B441EF0EF043EF0EF04BEF0EF02BC0
:101C87001E2A1E291E286C000E29222A222B2228F2
:101C9700C028F029C029F02AC02AF02BC02BF01247
:101CA70000819A818C818E81B25CEF0EF05EEF0E1F
:101CB700F061EF0EF0010ED7EF0EF081B466EF0E74
:101CC700F068EF0EF06BEF0EF0040ED7EF0EF08119
:101CD700B670EF0EF072EF0EF075EF0EF0070ED73D
:101CE700EF0EF081B87AEF0EF07CEF0EF07FEF0E7B
:101CF700F00A0ED7EF0EF0818A819C818E81B28720
:101D0700EF0EF089EF0EF08CEF0EF0020ED7EF0E0C
:101D1700F081B491EF0EF093EF0EF096EF0EF00511
:101D27000ED7EF0EF081B69BEF0EF09DEF0EF0A0F1
:101D3700EF0EF0080ED7EF0EF081B8A5EF0EF0A763
:101D4700EF0EF0AAEF0EF00B0ED7EF0EF0818A819F
:101D57008C819E819E81B2B3EF0EF0B5EF0EF0B885
:101D6700EF0EF0030ED7EF0EF081B4BDEF0EF0BF0C
:101D7700EF0EF0C2EF0EF0060ED7EF0EF081B6C7EA
:101D8700EF0EF0C9EF0EF0CCEF0EF0090ED7EF0E05
:101D9700F081B8D1EF0EF0D3EF0EF0D6EF0EF00CC6
:101DA7000ED7EF0EF0000E1200196AA40E036E2F65
:101DB7000E046E800E056EC9EC0BF0930E036E2FAA
:101DC7000E046EC00E056EC9EC0BF04D0E076E19B2
:101DD7000E066E500EE82EFED7062EFCD7072EFAFB
:101DE700D7670E026E2F0E036E64EC0BF05BEF0FDE
:101DF700F0186A1A6A020E1A18D8B405EF0FF0071E
:101E0700EF0FF010EF0FF0050E1A18D8A40EEF0F12
:101E1700F010EF0FF018EF0FF01A50090FD96EDA24
:101E27006A3A0EDF6E3EEF0FF0080E1A18D8B41F8D
:101E3700EF0FF021EF0FF02AEF0FF00B0E1A18D863
:101E4700A428EF0FF02AEF0FF032EF0FF01A500926
:101E57000FD96EDA6A200EDF6E3EEF0FF01A5009C7
:101E67000FD96EDA6A19500A0DF35018246FEC0A6D
:101E7700F0DF6E182A1A2A0D0E1A6445EF0FF04785
:101E8700EF0FF0FEEF0EF0176A1950300F0EEC0A45
:101E9700F0200E0EEC0AF0090E026E036A64EC0BDA
:101EA700F07F0E026E2F0E036E64EC0BF0192A19E9
:101EB70050066E076A0001DC51065C0750800A086D
:101EC7006EDD51800A0858D8A06CEF0FF06EEF0F47
:101ED700F0FCEF0EF0000E016E010EB5EC0AF005F6
:101EE7000E0001C16F1200096E0950D8B47EEF0FC2
:101EF700F080EF0FF0A2EF0FF004BE87EF0FF08531
:101F0700EF0FF0A2EF0FF001C005F002C006F003DB
:101F1700C007F004C008F0051E061E071E081E05B0
:101F27002A000E06220722082205C00BF006C00C65
:101F3700F007C00DF008C00EF0AAEF0FF001C00BBC
:101F4700F002C00CF003C00DF004C00EF001500207
:101F57001003100410D8A4B3EF0FF0B5EF0FF0BFC4
:101F6700EF0FF0000E016E000E026E000E036E0002
:101F77000E046E50EF10F0960E0A6EC9EF0FF00ABE
:101F87002AD8900E320D320C320B32000E0B14058C
:101F97006E000E0C14066E000E0D14076EFE0E0E6C
:101FA70014086E0550061007100810D8A4DEEF0FAE
:101FB700F0E0EF0FF0C3EF0FF0EEEF0FF00A2A019A
:101FC7000E0B26000E0C220D220E22D8900E320D7B
:101FD700320C320B32000E0B14056E000E0C140679
:101FE7006E000E0D14076EFF0E0E14086E055006D8
:101FF7001007100810D8A403EF10F005EF10F0E257
:10200700EF0FF00DEF10F00A06D8900B360C360DD7
:10201700360E360DBE12EF10F014EF10F01CEF1055
:10202700F0020E0A601AEF10F01CEF10F007EF1025
:10203700F00AB021EF10F023EF10F024EF10F00DAD
:102047009ED8900A320AC005F0066A076A086A0530
:10205700C008F0076A066A056A05500B1206500C9D
:102067001207500D1208500E120950D8B43EEF1047
:10207700F040EF10F048EF10F004BE47EF10F045C6
:10208700EF10F048EF10F00E8E0BC001F00CC002FD
:10209700F00DC003F00EC004F012000001DC51DDAA
:1020A70011D8A459EF10F05BEF10F07BEF10F000A0
:1020B7000E016E010EB5EC0AF0F40E036E2F0E043E
:1020C7006E800E056EC9EC0BF0330E0C6EBB0E0B5B
:1020D7006EE00EE82EFED70B2EFCD70C2EFAD7009B
:1020E7000E016E010EB5EC0AF0050E0001C16F116D
:1020F7006A5F50D8A482EF10F084EF10F087EF10DA
:10210700F0112ABEEF10F0020E5F18D8A48EEF1060
:10211700F090EF10F0ACEF10F0FF0EDC250B6EFF28
:102127000EDD210C6EDE510D6E0E6A0B500D5C0E2E
:1021370050800A0F6E0C50800A0F58D8B0A6EF10C7
:10214700F0A8EF10F0ACEF10F0DE2B112ABEEF1065
:10215700F05F04D8A4B2EF10F0B4EF10F0BEEF10A8
:10216700F0DE51D8B4BAEF10F0BCEF10F0BEEF10AC
:10217700F0DE07112A1150D8B4C4EF10F0C6EF10E3
:10218700F014EF11F0106A126A020E1218D8B4CFC9
:10219700EF10F0D1EF10F0DAEF10F0050E1218D8AB
:1021A700A4D8EF10F0DAEF10F0E2EF10F01250E3DE
:1021B7000FD96EDA6A3A0EDF6E09EF11F0080E12C8
:1021C70018D8B4E9EF10F0EBEF10F0F4EF10F00BC4
:1021D7000E1218D8A4F2EF10F0F4EF10F0FCEF1085
:1021E700F01250E30FD96EDA6A200EDF6E09EF1195
:1021F700F01250E30FD96EDA6A0001DE510A0DF3CF
:102207005010246FEC0AF0DF6E102A122A0D0E12FE
:102217006410EF11F012EF11F0C8EF10F00001F1A8
:102227006BB50E036E2F0E046E800E056EC9EC0B98
:10223700F0C00E096E0001DE51300F24EC0AF0E306
:102247000E036E046AC20E056EC9EC0BF0050E5F35
:1022570018D8A431EF11F033EF11F03BEF11F00074
:102267000E016E010EB5EC0AF0050E0001C16F12EA
:102277000020EE60F010EE08F0430EDBCFE3FFE83E
:1022870006FCE2030E0001E2614CEF11F04EEF1184
:10229700F06BEF11F0E251110DF350080F066E06C7
:1022A700C003F0046A820E056EC9EC0BF00001E270
:1022B70051110DF3CF06F0110E06260650080F0731
:1022C7006E07C003F0046AC20E056EC9EC0BF0007E
:1022D70001E151D8A472EF11F074EF11F086EF11FC
:1022E700F0FC0E036E2F0E046E800E056EC9EC0B0C
:1022F700F0910E036E2F0E046EC00E056EC9EC0B27
:10230700F096EF11F0910E036E2F0E046E800E05FE
:102317006EC9EC0BF0FC0E036E2F0E046EC00E059B
:102327006EC9EC0BF0020E5F18D8A49DEF11F09F59
:10233700EF11F0B7EF11F00001E151D8A4A6EF11AA
:10234700F0A8EF11F0ACEF11F0010EE16FD4EF112F
:10235700F0020EE261B2EF11F0B4EF11F0D4EF1119
:10236700F0E22BD4EF11F05F04D8A4BDEF11F0BF5A
:10237700EF11F0D4EF11F00001E105D8A4C6EF1179
:10238700F0C8EF11F0CBEF11F0E16BD4EF11F0E2F1
:1023970051D8B4D1EF11F0D3EF11F0D4EF11F0E22F
:1023A70007040E5F18D8A4DBEF11F0DDEF11F0364C
:1023B700EF12F0000E016E010EB5EC0AF00001E11C
:1023C70051E2C006F0076A0626000E0722065007EC
:1023D70010D8A4F1EF11F0F3EF11F0F6EF11F0C1FF
:1023E7006B47EF12F0E151E2C006F0076A062600DC
:1023F7000E072206040710D8A404EF12F006EF1206
:10240700F00AEF12F0010EC16F47EF12F0E151E24F
:10241700C006F0076A0626000E0722020E061807F6
:1024270010D8A419EF12F01BEF12F01FEF12F002F1
:102437000EC16F47EF12F0E151E2C006F0076A06DE
:1024470026000E0722030E06180710D8A42EEF1237
:10245700F030EF12F034EF12F0030EC16F47EF12B6
:10246700F047EF12F0050E5F18D8A43DEF12F03FCA
:10247700EF12F047EF12F0000E016E010EB5EC0AF5
:10248700F0040E0001C16F12007DEC0CF020EEA4E9
:10249700F010EE33F01A0EDBCFE3FFE806FCE25B49
:1024A7006AC60E036E2F0E046E800E056EC9EC0B06
:1024B700F0C20E036E046AC00E056EC9EC0BF00481
:1024C7000EF2EC0AF001C059F002C05AF0AE0E133A
:1024D7006E470E146E250E156E410E166E59C0010D
:1024E700F05AC002F0036A046A000E77EC0FF0019D
:1024F700C00FF002C010F003C011F004C012F0B01A
:10250700EC13F00FC028F010C029F011C02AF01208
:10251700C02BF0D1EC0DF028505D6ECF0E096E5D2B
:10252700C001F0026A000E046E0A0E036E19EC0D6C
:10253700F00150300F24EC0AF0CE0E096E5DC00199
:10254700F0026A000E046E0A0E036E70EC0DF001C5
:1025570050300F24EC0AF0030E5F18D8A4B6EF1220
:10256700F0B8EF12F0BEEF12F0080E0001E06F5B5B
:102577002AEFEF12F05F04D8A4C4EF12F0C6EF12EF
:10258700F0D3EF12F0070E0001E061CDEF12F0CFAC
:10259700EF12F0D3EF12F0E02B5B2AEFEF12F0020D
:1025A7000E5F18D8A4DAEF12F0DCEF12F0EFEF129B
:1025B700F0010E0001E065E3EF12F0E5EF12F0EF36
:1025C700EF12F0080EE061EBEF12F0EDEF12F0EF13
:1025D700EF12F0E0075B2A080E0001E019D8A4F714
:1025E700EF12F0F9EF12F00CEF13F05F04D8B4FF1D
:1025F700EF12F001EF13F00AEF13F0020E5F18D895
:10260700A408EF13F00AEF13F00CEF13F0020EE03B
:102617006FE051030DF350330F326E32C003F004F5
:102627006AC90E056EC9EC0BF05B50D8B41EEF13E8
:10263700F020EF13F09EEF13F00001DDBF2FEF1333
:10264700F0DD5107E10A0EDC5DD8B02DEF13F02F56
:10265700EF13F031EF13F0DC4BDD2BC2C04EF0C3AC
:10266700C04FF0C5C050F0C6C051F0C8C052F0C945
:10267700C053F0E051030DF350330FD96EDA6ADF20
:1026870050546EE051030DF3CF32F0010E32263273
:1026970050330FD96EDA6ADF50556E5DC001F00214
:1026A7006A000E046E0A0E036E70EC0DF0015030D6
:1026B7000F566E5DC001F0026A000E046E0A0E032B
:1026C7006E19EC0DF00150300F576E0A0E0001DC49
:1026D70019DD11D8A472EF13F074EF13F089EF131B
:1026E700F05E6A5E500A0F6FEC0AF0046E5E50D21D
:1026F700EC0AF05E2A590E5E6484EF13F086EF133E
:10270700F075EF13F05A0E0001DF6F5C6A5C504EF4
:102717000FD96EDA6ADF50046EDF51D2EC0AF0008F
:1027270001DF2B5C2A090E5C649CEF13F09EEF130C
:10273700F08AEF13F0040E5F18D8A4A5EF13F0A7E3
:10274700EF13F0AFEF13F0000E016E010EB5EC0AB8
:10275700F0050E0001C16F12001250800B1F6E12A0
:10276700501224266E11AEBBEF13F0BDEF13F0BE6F
:10277700EF13F026802650D8B4C4EF13F0C6EF133A
:10278700F0DAEF13F02628D8A4CCEF13F0CEEF132E
:10279700F0D6EF13F0000E0F6E000E106E000E1144
:1027A7006E000E126E118E126AE2EF13F0000E0F1A
:1027B7006E000E106E000E116E000E126E16508017
:1027C7000B1F1A16501624276E15AEEDEF13F0EFF8
:1027D700EF13F0F0EF13F027802750D8B4F6EF137C
:1027E700F0F8EF13F00CEF14F02728D8A4FEEF133E
:1027F700F000EF14F008EF14F0000E136E000E1443
:102807006E000E156E000E166E158E166A14EF14F6
:10281700F0000E136E000E146E000E156E000E16ED
:102827006E1350141015101610D8A41DEF14F01FB6
:10283700EF14F037EF14F0000E0F6E000E106E005D
:102847000E116E000E126E800E11127F0E12121FE5
:102857005012120FC00FF010C010F011C011F0127B
:10286700C012F077EF15F02650D8A43DEF14F03FD3
:10287700EF14F049EF14F0000E0F6E000E106E000B
:102887000E116E000E126E77EF15F0275026C01747
:10289700F0186A175E000E185A7F0E1724206E0074
:1028A7000E1820216E0FC01BF010C01CF011C01DA8
:1028B700F012C01EF0000E0F6E000E106E000E110B
:1028C7006E000E126E000E226E000E236E000E2496
:1028D7006E000E256E276AA9EF14F02750D8B4773B
:1028E700EF14F079EF14F090EF14F0D8901B361C2A
:1028F700361D361E36D8900F36103611361236254D
:10290700AE88EF14F08AEF14F08BEF14F00F80D835
:1029170090223623362436253613501B5C14501C60
:102927005815501D5816501E58D8A09DEF14F09FEB
:10293700EF14F0A8EF14F0258C13501B5E14501CF5
:102947005A15501D5A16501E5A272A190E2764AFBA
:10295700EF14F0B1EF14F071EF14F01B501C101DC1
:10296700101E10D8B4BAEF14F0BCEF14F0D4EF1463
:10297700F02280D4EF14F0D8900F361036113612AB
:102987003625AEC9EF14F0CBEF14F0CCEF14F00FEF
:1029970080D89022362336243625362006D8A02123
:1029A7000611AED9EF14F0DBEF14F0BFEF14F027E8
:1029B7006A25AEE1EF14F0E3EF14F007EF15F0FF2F
:1029C7000E2214176EFF0E2314186EFF0E2414190F
:1029D7006E7F0E25141A6E1750181019101A10D87A
:1029E700B4F8EF14F0FAEF14F0FEEF14F0010E272D
:1029F7006E07EF15F00FA003EF15F005EF15F007C1
:102A0700EF15F0FAEF14F02750D8B40DEF15F00FCB
:102A1700EF15F033EF15F0010E0F26000E102211FF
:102A270022122212A01AEF15F01CEF15F033EF1542
:102A3700F00FC017F010C018F011C019F012C01A2B
:102A4700F01A341A3219321832173217C00FF01829
:102A5700C010F019C011F01AC012F0204A212A2123
:102A6700BE3EEF15F0215008E12028D8A03EEF1513
:102A7700F040EF15F04BEF15F0000E216E206800C7
:102A87000E0F6E000E106E000E116E000E126E21EC
:102A9700BE58EF15F0215006E12004D8B056EF15C7
:102AA700F058EF15F065EF15F0000E216E000E20BF
:102AB7006E000E0F6E000E106E000E116E000E12DD
:102AC7006E1F6A20C026F026A06CEF15F06EEF157A
:102AD700F071EF15F0118E72EF15F0119ED8902658
:102AE70030126E2BEF14F01200EB0E036E2F0E0454
:102AF7006E810E056EC9EC0BF00001D451D511D8CB
:102B0700A488EF15F08AEF15F094EF15F0000ED1B9
:102B17006F010ED06F000ECF6F020ECE6FB9EF159B
:102B2700F0D405D511D8A49BEF15F09DEF15F0A7AC
:102B3700EF15F0000ED16F040ED06F000ECF6F05AA
:102B47000ECE6FB9EF15F0020ED419D511D8A4AF78
:102B5700EF15F0B1EF15F0B9EF15F0000ED16F07D3
:102B67000ED06F000ECF6F080ECE6FD2510B6ED303
:102B7700510C6ED24BD32B0CBECDEF15F00C50077A
:102B8700E1650E0B5CD8B0CBEF15F0CDEF15F0DC9F
:102B9700EF15F0D051C00F096E200E24EC0AF0009B
:102BA70001CE51C00F096E200E24EC0AF0F7EF1585
:102BB700F0D3BFEAEF15F0D35107E1C90ED25DD8C4
:102BC700B0E8EF15F0EAEF15F0F3EF15F0C20E03DA
:102BD7006E046AC10E056EC9EC0BF0F7EF15F00035
:102BE7000ED36F000ED26F0001C2510A0DF3CF0B47
:102BF700F0F4CF0CF0C3510B26000E0C22F00E0B95
:102C070024D86FFD0E0C20D96FC5510A0DF3CF0BD9
:102C1700F0F4CF0CF0C6510B26000E0C22F00E0B71
:102C270024DA6FFD0E0C20DB6FC8510A0DF3CF0BB2
:102C3700F0F4CF0CF0C9510B26000E0C22F00E0B4E
:102C470024D66FFD0E0C20D76F020E5F18D8A42F65
:102C5700EF16F031EF16F041EF16F0D44BD52B03FA
:102C67000ED419D511D8A43BEF16F03DEF16F0415D
:102C7700EF16F0000ED56F000ED46F5F04D8A4478F
:102C8700EF16F049EF16F080EF16F0D451D511D8B2
:102C9700A450EF16F052EF16F080EF16F0D84BD98C
:102CA7002B180ED819D911D8A45CEF16F05EEF16C1
:102CB700F062EF16F0000ED96F000ED86FD8C00182
:102CC700F0D9C002F0000E046E0A0E036E70EC0D10
:102CD700F00150300F0001C26FD8C001F0D9C00217
:102CE700F0000E046E0A0E036E19EC0DF001503061
:102CF7000F0001C36FFDEF16F05F04D8A486EF162F
:102D0700F088EF16F0BFEF16F0D405D511D8A48FD1
:102D1700EF16F091EF16F0BFEF16F0DA4BDB2B3C16
:102D27000EDA19DB11D8A49BEF16F09DEF16F0A170
:102D3700EF16F0000EDB6F000EDA6FDAC001F0DB82
:102D4700C002F0000E046E0A0E036E70EC0DF00167
:102D570050300F0001C56FDAC001F0DBC002F00090
:102D67000E046E0A0E036E19EC0DF00150300F00C1
:102D770001C66FFDEF16F05F04D8A4C5EF16F0C7C4
:102D8700EF16F0FDEF16F0020ED419D511D8A4CF27
:102D9700EF16F0D1EF16F0FDEF16F0D64BD72B3C20
:102DA7000ED619D711D8A4DBEF16F0DDEF16F0E138
:102DB700EF16F0000ED76F000ED66FD6C001F0D712
:102DC700C002F0000E046E0A0E036E70EC0DF001E7
:102DD70050300F0001C86FD6C001F0D7C002F00015
:102DE7000E046E0A0E036E19EC0DF00150300F0041
:102DF70001C96F040E5F18D8A404EF17F006EF1788
:102E0700F089EF17F0D8C001F0D9C002F0000E0426
:102E17006E0A0E036E19EC0DF001C00BF002C00C28
:102E2700F0D8C001F0D9C002F0000E046E0A0E03FC
:102E37006E70EC0DF00138F00B0B10096E020E4BA3
:102E4700EC0AF0DAC001F0DBC002F0000E046E0AF3
:102E57000E036E19EC0DF001C00BF002C00CF0DA96
:102E6700C001F0DBC002F0000E046E0A0E036E70A4
:102E7700EC0DF00138F00B0B10096E010E4BEC0A4C
:102E8700F0D6C001F0D7C002F0000E046E0A0E03A0
:102E97006E19EC0DF001C00BF002C00CF0D6C001AA
:102EA700F0D7C002F0000E046E0A0E036E70EC0D30
:102EB700F00138F00B0B10096E000E4BEC0AF00016
:102EC7000E016E010EB5EC0AF0E20E036E2F0E0432
:102ED7006E810E056EC9EC0BF01A0E0C6E5E0E0BB2
:102EE7006E6E0EE82EFED70B2EFCD70C2EFAD700EF
:102EF700D0050E0001C16F000E016E010EB5EC0A80
:102F0700F0000E0001D56F000ED46F050E5F18D8C4
:102F1700A490EF17F092EF17F0B2EF17F0050EC17C
:102F27006F000E016E010EB5EC0AF0D70E036E2F7F
:102F37000E046E810E056EC9EC0BF01A0E0C6E5E58
:102F47000E0B6E6E0EE82EFED70B2EFCD70C2EFA4C
:102F5700D700D0000E0001D56F000ED46F1200000D
:102F6700546865206C6F67732061726520617320F8
:102F7700666F6C6C6F77733A0A0D0020204C6F6791
:102F87007320436C656172656420200020205375AF
:102F9700636365737366756C6C7920200020446FDA
:102FA700776E6C6F61646564204C6F672000232027
:102FB70054696D6520202020204556205350005429
:102FC700696D652020202020455620202053500081
:102FD70020202045584954494E470020202053417E
:102FE7005645440048483A4D4D3A5353004E4F20FA
:082FF7004C6F6773002A000013
:020000040020DA
:08000000FFFFFFFFFFFFFFFF00
:020000040030CA
:0E000000FF071F1FFF8285FF0FC00FE00F409C
:00000001FF
